:020000040800F2
:10000000D8070020591C00083509000837090008E6
:100010003B0900083F0900084309000800000000F0
:100020000000000000000000000000004709000878
:1000300049090008000000004B0900084D090008AC
:10004000731C0008731C0008731C0008731C000854
:10005000731C0008731C0008731C0008731C000844
:1000600081180008731C0008731C0008731C00082A
:10007000731C0008731C0008731C0008731C000824
:10008000731C0008731C0008731C0008731C000814
:10009000731C0008731C0008731C0008731C000804
:1000A000731C00082D0E0008731C00084D0E00087C
:1000B000010E0008731C0008731C0008731C000864
:1000C000731C0008731C0008731C0008731C0008D4
:1000D000731C00085D1B0008731C0008731C0008DB
:1000E000731C0008731C0008731C0008731C0008B4
:1000F000731C0008731C0008731C0008731C0008A4
:10010000731C0008731C0008731C0008731C000893
:10011000731C0008731C0008731C0008731C000883
:10012000731C0008731C0008731C0008731C000873
:10013000731C0008731C0008731C0008731C000863
:10014000731C0008731C0008731C0008731C000853
:10015000731C0008731C0008731C0008731C000843
:10016000731C0008731C0008731C0008731C000833
:10017000731C0008731C0008731C0008731C000823
:10018000731C0008731C000800F002F800F03CF833
:100190000AA090E8000C82448344AAF10107DA45E2
:1001A00001D100F031F8AFF2090EBAE80F0013F0F8
:1001B000010F18BFFB1A43F00103184794490000D0
:1001C000B4490000103A24BF78C878C1FAD8520761
:1001D00024BF30C830C144BF04680C6070470000C1
:1001E0000023002400250026103A28BF78C1FBD840
:1001F000520728BF30C148BF0B6070471FB504F0DD
:100200004CFC1FBD10B510BD03F086FB1146FFF777
:10021000F5FF00F097F803F0A4FB03B4FFF7F2FF3B
:1002200003BC01F037FC000010B52DED048BFD4838
:10023000B0F9000000EE100AB8EEC00AF0EE408AF5
:10024000B0EE408AF748B0F9040000EE100AB8EEAC
:10025000C00AF0EE409AB0EE409A00245BE0F1480C
:1002600001F0B7FAEF48B0F9000000EE100AB8EE5E
:10027000C00AB4EEC80AF1EE10FA08DDE948B0F998
:10028000000000EE100AB8EEC00AB0EE408AE54861
:10029000B0F9000000EE100AB8EEC00AB4EEE80AA9
:1002A000F1EE10FA08D2DF48B0F9000000EE100AB3
:1002B000B8EEC00AF0EE408ADA48B0F9040000EE69
:1002C000100AB8EEC00AB4EEC90AF1EE10FA08DD61
:1002D000D448B0F9040000EE100AB8EEC00AB0EE3F
:1002E000409AD048B0F9040000EE100AB8EEC00AF7
:1002F000B4EEE90AF1EE10FA08D2CA48B0F90400E7
:1003000000EE100AB8EEC00AF0EE409A642001F048
:10031000A1FB601CC4B2FA2CA1DB38EE280AF0EE77
:10032000000A80EE201AC04880ED001A39EE290A32
:10033000F0EE000A80EE201ABC4880ED001ABDECF9
:10034000048B10BD2DED0A8B8AB04FF000090120FF
:10035000099000BF4FF0400B3B2008902E200790E3
:1003600000200690002600274FF4A06001F094FCC6
:100370009FEDAF1ADFEDAF0A9FEDAF0AAF4801F076
:1003800015F9A82001F004FB4FF4E13001F090FBD7
:1003900001F091FA01F056FA01F0B6FA532144F651
:1003A0001F6000F0DDFB532144F61F6000F045FCA8
:1003B0005321312000F0CCFC00F08AFC532142F2A2
:1003C0000F7000F00DFC44F2E0719D4802F0E3FA7A
:1003D00000F0BEFF01F024FA94E2924801F0F9F92E
:1003E0009048B0F9000000EE100AB8EEC00A8E483E
:1003F000D0ED000A30EE600ABDEEC00A10EE100A21
:1004000000B2884908800846B0F9040000EE100ADE
:10041000B8EEC00A8548D0ED000A30EE600ABDEEA5
:10042000C00A10EE100A00B28880B1F9000004F092
:1004300046F841EC1B0B7B49B1F9040004F03FF88E
:1004400041EC1C0BB0EE4B1AF0EE6B1AB0EE4C0AFE
:10045000F0EE6C0A03F010FCB0EE40AAF0EE60AAD9
:100460009FED780B53EC102B51EC1A0B04F07AF83B
:1004700041EC190B9FED750B53EC102B03F0E6FDCF
:1004800041EC180B03F0B0FD724908600A2001F03E
:10049000E1FA7148007801289ED101E0681CC5B2DC
:1004A0006E48405D0D28F9D16C48007841287CD118
:1004B000022D02D0032D10D104E068484078A0F14D
:1004C00030041CE065488078303864494978303918
:1004D00001EB810100EB410411E0604840783038C5
:1004E000642110FB01F15D488078303800EB80001A
:1004F00001EB40015948C07830380C1800BF00BFEC
:100500000AF1010000F0FF0A099850B1514890ED3E
:10051000000ABDEEC00A10EE100AA4EB000800208D
:10052000099028209AFBF0F100FB11A008B94FF0C8
:10053000000AA4EB080000EE900AF8EEE00AB0EE24
:10054000600A3E4801F039F845480078012868D132
:1005500000F0CDFDA4EB08013E4890ED000ABDEE91
:10056000C00A10EE100A0F1AD1E0302000F0EAFCA9
:100570003C2001F06FFA2B4801F02BF92948B0F923
:10058000000000EE100AB8EEC00A2748D0ED000ABD
:1005900030EE600ABDEEC00A10EE100A00B221492A
:1005A00008800846B0F9040000E054E100EE100AAB
:1005B000B8EEC00A1D48D0ED000A30EE600ABDEE6C
:1005C000C00A10EE100A00B28880B1F9000003F0F2
:1005D00076FF41EC1B0B1349B1F9040003F06FFFE8
:1005E00041EC1C0BB0EE4B1AF0EE6B1AB0EE4C0A5D
:1005F000F0EE6C0A03F040FBB0EE40AAF0EE60AA09
:100600009FED100B53EC102B51EC1A0B03F0AAFFCB
:1006100041EC190B9FED0D0B53EC102B03F016FD65
:1006200020E002E110000020080000200C00002063
:10063000CDCC4C3DEC51383E0AD7A33EA000002063
:1006400000040040775AF01ADCA54C40000000007E
:1006500000806640180000208D00002087000020E8
:100660000000002041EC180B03F0BEFCA649086016
:10067000A6480078012836D101E0681CC5B2A4481C
:10068000405D0D28F9D1A2480078412827D1022DDC
:1006900002D0032D10D104E09D484078A0F1300431
:1006A0001CE09B488078303899494978303901EB13
:1006B000810100EB410411E0954840783038642115
:1006C00010FB01F192488078303800EB800001EB9C
:1006D00040018F48C07830380C1800BF00BF00259B
:1006E00000208A490870A4EB0801874890ED000AB1
:1006F000BDEEC00A10EE100A0F1AB42F02DDA7F5E6
:10070000B47704E017F1B40F01DA07F5B477052FD9
:100710003FF72BAF17F1050FFFF627AF012000F0D1
:1007200011FC7C4801F055F87A48B0F9000000EE61
:10073000100AB8EEC00A7848D0ED000A30EE600A20
:10074000BDEEC00A10EE100A00B2724908800846D9
:10075000B0F9040000EE100AB8EEC00A6F48D0ED00
:10076000000A30EE600ABDEEC00A10EE100A00B2B8
:100770008880B1F9000003F0A2FE41EC1B0B654933
:10078000B1F9040003F09BFE41EC1C0BB0EE4B1AD8
:10079000F0EE6B1AB0EE4C0AF0EE6C0A03F06CFA55
:1007A000B0EE40AAF0EE60AA1FED5A0B53EC102BEE
:1007B00051EC1A0B03F0D6FE41EC190B1FED5D0B4B
:1007C00053EC102B03F042FC41EC180B03F00CFC33
:1007D0004D490860084690ED000ABDEEC00A10EED3
:1007E000100AA4EB0008A4EB080000EE900AF8EE53
:1007F000E00AB0EE600A4A4800F0DFFE172000F081
:10080000A1FB0A2001F026F9012000F070FC40F263
:10081000145001F01FF9012000F094FB4FF0000A82
:10082000002040490870404908704048007838B1BD
:100830004FF03C0B3620089000203C4908702AE01D
:100840003B48007838B34FF0420B3C200890002022
:10085000374908701FE0022D02D0032D11D104E0AA
:100860002B484078303806900CE0294880783038A2
:1008700027494978303901EB810100EB41000690AE
:1008800000E000BF00BF49464A1C02F0FF0901AA70
:10089000069842F82100002500201C490870B9F193
:1008A000050F04D1814601A800F0F6FC064606B308
:1008B0005E4506D3332000F01AFC052000F042FB11
:1008C0001FE00898864208D35E4506D2052000F056
:1008D0000EFC052000F036FB13E00898864209D292
:1008E0000798864206D3052000F001FC342000F072
:1008F00029FB06E0052000F0FAFB3C2000F022FB7B
:1009000000BF00BF69E50000180000208D00002036
:100910008700002010000020080000200C000020AC
:10092000A0000020000000200300002001000020A3
:1009300002000020704700BFFEE700BFFEE700BFD7
:10094000FEE700BFFEE77047704770477047000042
:100950000CB50020019000907648006840F480308B
:100960007449086000BF7348006800F400300090CC
:100970000198401C0190009818B90198B0F5A04F5B
:10098000F1D16C48006800F4003010B101200090F3
:1009900001E0002000900098012846D165484030D1
:1009A000006840F080506349403108606248006848
:1009B00040F44040604908605E48083000685D4986
:1009C000083108600846006840F4004008600846A6
:1009D000006840F4A05008605848091F0860081FCC
:1009E000006840F08070091F086000BF514800682F
:1009F00000F000700028F9D040F2057050490860FE
:100A00004C480830006820F003004A49083108606B
:100A10000846006840F00200086000BF4548083002
:100A2000006800F00C000828F8D10CBD10B545484E
:100A3000006840F47000434908603E48006840F098
:100A400001003C49086000203A49083108603948F3
:100A500000683D490840374908603C48091D086066
:100A6000081F006820F48020091F08600020314919
:100A70000C310860FFF76CFF4FF00060314980399E
:100A8000086010BD70B5002000220223002402215E
:100A9000284D08352D6805F00C0020B1042806D03B
:100AA000082834D107E02A4D2A4E356033E02A4D1C
:100AB000284E35602FE01F4D2D1D2D68C5F3805445
:100AC0001C4D2D1D2D6805F03F0154B1224DB5FB85
:100AD000F1F5184E361D3668C6F3881605FB06F28A
:100AE00009E01B4DB5FBF1F5124E361D3668C6F315
:100AF000881605FB06F20F4D2D1D2D68C5F3014527
:100B00006D1C6B00B2FBF3F5124E356003E0104D27
:100B1000104E356000BF00BF064D08352D68C5F387
:100B200003150E4E705D0B4D2D68C540094E3560A6
:100B300070BD0000003802400070004008544007BB
:100B4000003C024088ED00E0FFFFF6FE103000247C
:100B50000024F4001C00002000127A002000002075
:100B600030B587B004460D460121084602F048FD25
:100B7000A8B2ADF804000020ADF806000294ADF86C
:100B80000C0001A9E14801F018FD0020ADF81000AB
:100B9000ADF812000120ADF814000020ADF81600E9
:100BA000ADF8180004A9D94802F0DEF801220321AB
:100BB000D64802F0A3F90121D44801F087FD1B209B
:100BC0008DF8000002208DF8010000208DF8020051
:100BD00001208DF80300684601F063F807B030BDCE
:100BE0007FB504460D460121084602F0F8FCA8B284
:100BF000ADF804000020ADF806000294ADF80C003A
:100C000001A94FF0804001F0D8FC1C208DF80000B5
:100C100000208DF8010001208DF802008DF80300FE
:100C2000684601F03EF801220321900702F066F9C0
:100C30000121880701F04AFD7FBD30B58BB0044625
:100C40000D460121022002F0CAFC0121084602F0F3
:100C50007DFC02220621AE4801F09FF94020099058
:100C600002208DF8280003208DF8290000208DF83F
:100C70002A0001208DF82B0009A9A54801F002F9EE
:100C8000A8B2ADF818000020ADF81A000794ADF82E
:100C9000200006A99F4801F090FC6020ADF80400F8
:100CA0000120ADF806000220ADF8100001A9994816
:100CB00001F018FD0821974801F0A1FE0121954897
:100CC00001F0E6FC0121934801F000FD0BB030BDBE
:100CD00000B585B00121042002F081FC0121102023
:100CE00002F034FC022200218B4801F056F9012069
:100CF000039002208DF8100003208DF811000020D1
:100D00008DF8120001208DF8130003A9824801F02C
:100D1000B9F80020ADF80000ADF802004FF6FF7002
:100D200001900020ADF8080069467C4801F045FCC0
:100D300000231A461946794802F088F900217748BD
:100D400001F084FC0121754801F0C0FC05B000BD34
:100D500030B58BB004460D460121082002F03FFC5F
:100D60000121084602F0F2FB02220021684801F04E
:100D700014F902220121664801F00FF903200990BD
:100D800002208DF8280003208DF8290000208DF81E
:100D90002A0001208DF82B0009A95D4801F072F8A6
:100DA000A8B2ADF818000020ADF81A000794ADF80D
:100DB000200006A95A4801F000FC6020ADF80400AC
:100DC0000120ADF806000220ADF8100001A954483A
:100DD00001F088FC01A9524801F0BDFC08215048EF
:100DE00001F00DFE08214E4801F012FE01214C4891
:100DF00001F04EFC01214A4801F068FC0BB030BD07
:100E000010B50121880702F090F8012808D1434865
:100E100024300068434908600020404924310860BC
:100E200003214FF0804002F091F810BD10B5012170
:100E3000364802F07AF840B10121344802F086F8D1
:100E400039480078401C3849087010BD10B502219F
:100E50002E4802F06AF8002845D002212B4802F003
:100E600075F832480078012810D12F4800783049B1
:100E70000860264801F0F6FF2E4908800221234829
:100E800001F03FFE0020294908702CE02748007837
:100E900048BB25480078284908601C4801F0E2FF5B
:100EA000264908802448006821490968401A40F210
:100EB000712148432149098801EB40101D490988E7
:100EC000441A00201A4908601A4908801A49086023
:100ED0001A4908801449087000210C4801F011FEDD
:100EE00001201249087004EBD47149104FF4AC7220
:100EF000514342F2107291FBF2F1114A116000BFAE
:100F00000221024802F022F810BD0000000001405A
:100F100000000240000400400010024000080040B1
:100F2000000C004030000020340000204E00002063
:100F30004000002044000020480000204C00002019
:100F40003C00002070B52DED0C8B04469FEDEB0AA4
:100F5000B0EE409A9FEDEA0AF0EE409A9FEDE90A62
:100F6000B0EE40AAE8480068201A00EE100AB8EE79
:100F7000C00AF0EE408AE54890ED000A78EEC00A1B
:100F8000E34890ED000A09EE200A09EEA80ADF48BE
:100F900090ED001AF0EE001AF0EE680A41EEC10A78
:100FA000DC4890ED001A70EE810A0AEE200AB0EEDD
:100FB000408A204603F083FA41EC1D0B9FEDD60BCF
:100FC00053EC102B03F0CEFA41EC1B0B18EE100A79
:100FD00003F0F2FC41EC1C0B53EC1B2B03F0C0FBA9
:100FE00010D8204603F06BFA41EC1C0B9FEDCA0BA6
:100FF00053EC102B03F0B6FA41EC1B0B02F0F4FF9C
:1010000008EE100A204603F05AFA41EC1D0B9FED42
:10101000C40B53EC102B03F0A5FA41EC1B0B18EE9C
:10102000100A03F0C9FC41EC1C0B53EC1B2B03F022
:101030005DFA10D8204603F042FA41EC1C0B9FEDFC
:10104000B80B53EC102B03F08DFA41EC1B0B02F0A4
:10105000CBFF08EE100ABCEEC80AB8EE400AB24850
:1010600080ED000A90ED000AF2EE0E0AB4EEE00AFE
:10107000F1EE10FA03DBB2EE0E0A80ED000AAA4888
:1010800090ED000AB5EEC00AF1EE10FA03D89FED1C
:101090009C0A80ED000A9D4890ED000A9D4880ED75
:1010A000000A9A48C0ED008A994880ED008A9E485F
:1010B000006803F081FC41EC1D0B9FED9C0B53EC91
:1010C000102B03F04FFA41EC1C0B9FED9A0B53ECE5
:1010D000102B03F07BFB41EC1B0B03F0C3F905461F
:1010E0002946964801F057FCBDEC0C8B70BD70B5DD
:1010F0002DED0C8B04469FED810AB0EE409A9FEDDA
:10110000800AF0EE409A9FED7F0AB0EE40AA7E483A
:101110000068201A00EE100AB8EEC00AF0EE408A0D
:10112000874890ED000A78EEC00A864890ED000AE4
:1011300009EE200A09EEA80A814890ED001AF0EEA7
:10114000001AF0EE680A41EEC10A7F4890ED001ADD
:1011500070EE810A0AEE200AB0EE408A204603F0C3
:10116000AEF941EC1D0B9FED6C0B53EC102B03F013
:10117000F9F941EC1B0B18EE100A03F01DFC41ECD1
:101180001C0B53EC1B2B03F0EBFA10D8204603F09A
:1011900096F941EC1C0B9FED600B53EC102B03F008
:1011A000E1F941EC1B0B02F01FFF08EE100A20468C
:1011B00003F085F941EC1D0B9FED590B53EC102BFF
:1011C00003F0D0F941EC1B0B18EE100A03F0F4FB0E
:1011D00041EC1C0B53EC1B2B03F088F910D8204674
:1011E00003F06DF941EC1C0B9FED4D0B53EC102BF4
:1011F00003F0B8F941EC1B0B02F0F6FE08EE100A02
:10120000BCEEC80AB8EE400A504880ED000A90EDE6
:10121000000AF2EE0E0AB4EEE00AF1EE10FA03DB79
:10122000B2EE0E0A80ED000A484890ED000AB5EED5
:10123000C00AF1EE10FA03D89FED310A80ED000AE2
:101240003F4890ED000A404880ED000A3C48C0ED60
:10125000008A3C4880ED008A3C48006803F0ACFB03
:1012600041EC1D0B9FED310B53EC102B03F07AF981
:1012700041EC1C0B9FED2F0B53EC102B03F0A6FA47
:1012800041EC1B0B03F0EEF8054629462B4801F014
:1012900084FBBDEC0C8B70BD70B5014600260C685C
:1012A0000D6800220AE00868A04200D20C680868B5
:1012B000A84200D90D68091D501CC2B2052AF2DBF4
:1012C000002202E0091F501CC2B2052AFADB0022EC
:1012D0000CE00868A84206D00868A04203D008685D
:1012E0000644581CC3B2091D501CC2B2052AF0DBCB
:1012F0000BB9204670BDB6FBF3F0FBE7CDCC4C3EFE
:10130000000000008FC2F53C30000020500000209B
:101310005C00002054000020333333333333D33F99
:10132000333333333333D3BF580000200000000081
:101330000000F83F0000000000004940000C0040A1
:10134000600000206C000020640000206800002085
:101350001CB50121022002F0F9F8C0200090012004
:101360008DF8040002208DF8050069468C4800F0D5
:1013700089FDC0218A4800F001FE1CBD10B58848D7
:10138000006820F0F020864908600846006840F4B4
:10139000A04008600120834908608349C1F8980291
:1013A000052000F00FFB00207E490860052000F0BA
:1013B00009FB00207C49C1F8980210BD10B578489F
:1013C000006820F0F020764908600846006840F484
:1013D000A040086000207349091F08607249C1F8E5
:1013E0009C02052000F0EEFA01206E49091F0860FA
:1013F0006D49C1F89C02052000F0E4FA10BD10B55B
:101400000024012067490860052000F0DBFA6448E9
:10141000006820F47040624908600846006840F4A3
:101420008050086001206049C1F89802052000F052
:10143000C9FA05E0601CC4B2FA2C01DD012010BD20
:101440005848803800680028F4D15649091F0860C0
:1014500000BFF4E710B500205249091F086050484A
:10146000006820F0F0204E4908600846006840F40B
:10147000A040086000204C49C1F89C02052000F003
:10148000A1FA01204749091F0860052000F09AFAD7
:1014900000204549C1F8980210BD10B5002041490F
:1014A000091F08603E48006820F0F0203C490860B1
:1014B0000846006840F4A040086001203A49C1F89D
:1014C0009C02052000F07EFA01203649091F0860C1
:1014D000052000F077FA00203349C1F8980210BDCA
:1014E00070B504462E48006820F0F0202C490860B2
:1014F0000846006840F4A040086000202949091F00
:10150000086000251DE0E00918B1012025490860A8
:1015100002E00020234908606006040E052000F068
:1015200051FA01201F49091F0860052000F04AFAFE
:1015300000201D49C1F89802052000F043FA681CFC
:10154000C5B2082DDFDB70BD70B5002414480068FB
:1015500020F47040124908600846006840F480504A
:101560000860002517E000200E49091F08600520CB
:1015700000F028FA01200C49C1F898026006040E18
:1015800008488038006808B1601CC4B2052000F02B
:1015900019FA681CC5B2082DE5DB204670BD0000B5
:1015A000000402409C8240420080404280ED000ADC
:1015B000C0ED010A80ED021A704770B52DED088B61
:1015C0000546B0EE409A5A4890ED000A39EE400ABE
:1015D000B0EE408A9FED570AB4EEC08AF1EE10FAE1
:1015E00006DD9FED550A38EE400AB0EE408A0CE069
:1015F0009FED520AB4EEC08AF1EE10FA05D29FEDCB
:101600004E0A38EE000AB0EE408AD5ED000A4C488A
:1016100090ED000A38EE401A4A4890ED000A00EEBC
:10162000810AD5ED010A00EE880A95ED021A4448B8
:10163000D0ED001AB0EE002AF0EE480A42EE610A40
:101640004148D0ED001A70EEA10AF0EE408A41EE5A
:10165000208ABDEEE80A10EE104AB3EE0E0AB4EE90
:10166000C08AF1EE10FA07D2BBEE0E0AB4EEC08AC1
:10167000F1EE10FA00DD00240A2C00DB0A2414F13C
:101680000A0F01DC6FF009040A2C03D101202F4955
:10169000087005E004F10A0010B901202C49087017
:1016A000274890ED000A284880ED000A244880ED84
:1016B000008A2448C0ED008A90ED000AF2EE040A88
:1016C000B4EEE00AF1EE10FA08DC90ED000AFAEE52
:1016D000040AB4EEE00AF1EE10FA11D219480068DB
:1016E00003F06AF941EC1B0B9FED1A0B53EC102B26
:1016F00002F038FF41EC1A0B02F076FC1149086049
:1017000044F2E070142202FB1401144801F043F982
:101710000A2C02D004F10A0018B9012010490870FF
:1017200002E000200E490870BDEC088B70BD00007F
:1017300018000020000034430000B443000034C30C
:1017400070000020780000207400002002000020BB
:1017500001000020333333333333E33F00040040D0
:101760000000002070B505460C46FFF707FE3C2040
:10177000FFF7B6FEFFF743FE2846FFF7B1FEFFF77F
:101780003EFE2046FFF7ACFEFFF739FEFFF716FEE0
:1017900070BD70B50446FFF7F1FD3C20FFF7A0FED9
:1017A000FFF72DFE2046FFF79BFEFFF728FEFFF711
:1017B00005FEFFF7E3FD3D20FFF792FEFFF71FFE5A
:1017C000FFF7C2FE0546FFF768FEFFF7F7FD284664
:1017D00070BD70B504460320FFF7DBFF054604200B
:1017E000FFF7D7FF00EB052000B224F8020B05201D
:1017F000FFF7CFFF05460620FFF7CBFF00EB0520E4
:1018000000B224F8020B0720FFF7C3FF05460820AB
:10181000FFF7BFFF00EB052000B224F8020B70BDFC
:1018200010B514210020FFF79DFF80210120FFF754
:1018300099FF00210220FFF795FF0A2000F00AF926
:1018400010BD00001CB50121042001F07FFE4FF403
:101850008070009001208DF8040000208DF80600B3
:1018600003208DF8050002208DF807006946254801
:1018700000F008FB4FF48071224800F081FB1CBD92
:1018800010B5002411E04FF480711E4800F076FB83
:10189000C82000F0DFF84FF480711A4800F070FBA8
:1018A000C82000F0D7F8601CC4B2052CEBDB042084
:1018B00002F01FF810BD0EB50121880301F0A0FE53
:1018C0000221042001F02FFC0420009000208DF85C
:1018D000040008208DF8050001208DF806006846F8
:1018E00001F096FF08208DF8080001208DF809000E
:1018F00002208DF80A0001208DF80B0002A800F0EC
:10190000D0F90EBD000802401CB50121084601F0C7
:101910001DFE0420009001208DF8040000208DF8A9
:10192000060003208DF8050001208DF807006946A8
:10193000164800F0A7FA4FF48070009002208DF84E
:10194000040000208DF8060003208DF80500022019
:101950008DF8070069460D4800F094FA012208212D
:101960000A4800F01AFB0421084800F009FB1CBDDE
:1019700010B50421054800F001FB142000F022F806
:101980000421024800F0FCFA10BD000000000240F3
:1019900010B504466FF0040000F0D0F9E11704EB35
:1019A0005171C1F3C701394A11701046007800EB3C
:1019B0004001C1EBC0104FF6FF7101EAC00034498D
:1019C000088010BD0146314A12784A434FF0E023A7
:1019D0005A6100229A611A46126942F001021A61A4
:1019E00000BF4FF0E022106900F001021AB100F4CC
:1019F0008032002AF5D04FF0E022126922F0010275
:101A00004FF0E0231A6100229A6170470146204A94
:101A100012884A434FF0E0235A6100229A611A4625
:101A2000126942F001021A6100BF4FF0E022106912
:101A300000F001021AB100F48032002AF5D04FF014
:101A4000E022126922F001024FF0E0231A61002225
:101A50009A61704770B504464FF4077094FBF0F03C
:101A6000C6B24FF4077094FBF0F100FB114085B251
:101A700005E04FF40770FFF7C9FF701EC6B2002ED5
:101A8000F7D115B12846FFF7C1FF70BD7C000020DB
:101A90007E000020014600BF704700BF664A1288E2
:101AA00002F04002002AF9D0C2B2634B9A8070471C
:101AB00010B588B004460121084601F047FD012118
:101AC000102001F09DFD072209215C4800F065FA15
:101AD00007220A21594800F060FA4FF4C0600690CE
:101AE00002208DF81C008DF81D0000208DF81E00CE
:101AF00001208DF81F0006A9504800F0C3F9029498
:101B00000020ADF80C00ADF80E00ADF81000ADF8F7
:101B100014000C20ADF8120002A9474800F0DDFACD
:101B20000121454800F061FB4021434800F045FC9D
:101B3000012240F22551404800F00DFC25208DF88F
:101B4000040003208DF805008DF8060001208DF8B3
:101B5000070001A800F0A5F808B010BD10B540F2CC
:101B60002551354800F032FC002863D0324800F09F
:101B70006BFBC4B2324801780078401C304A1070C8
:101B8000304844543048008800F4004010BB2E48D0
:101B9000008800F48040A8B10A2C03D000202A4914
:101BA000088029E02848008840F400402649088041
:101BB0000020234908700120244908700020224990
:101BC000088019E00D2C06D11F48008840F48040A1
:101BD0001D49088010E01C480088C0F30D001C4916
:101BE0000C5419480088401C174908800846008892
:101BF000C72801DD0020088016480078012819D187
:101C0000002014490870114908700D49087009E056
:101C100000200C490A4A1278885409480078401C70
:101C200007490870064800780528F1DB4FF4FA50A0
:101C3000FFF710FF10BD000000100140000002403F
:101C40008E00002087000020840000208D000020EE
:101C5000AC00002086000020094880470948004762
:101C6000FEE7FEE7FEE7FEE7FEE7FEE7FEE7FEE74C
:101C7000FEE7FEE704480549054A064B70470000A9
:101C80002D0A000889010008D8010020D80700208B
:101C9000D8030020D803002032490143324A1160A2
:101CA000704770B5002100230F22C4781CB32E4C5E
:101CB000246804F4E064C4F5E064C4F30721C1F1CE
:101CC0000404E3B20A4144789C40E1B284781440B1
:101CD00021430C07210E254C05786155047804F04A
:101CE0001F050124AC4005786D11AD0005F1E0251C
:101CF000C5F8004109E0047804F01F050124AC4058
:101D00001B4D0678761145F8264070BD194A0A40E9
:101D10000243154B1B1F1A60704739B1124A121D3E
:101D200012680243104B1B1D1A6006E00E4A121D7A
:101D3000126882430C4B1B1D1A607047042808D19F
:101D40004FF0E021096941F004014FF0E0221161F8
:101D500007E04FF0E021096921F004014FF0E02293
:101D6000116170470000FA050CED00E000E400E0AE
:101D700080E100E080FFFF1F10B5044698488442D0
:101D800008D10121084601F04CFC0021012001F09E
:101D900048FC76E09348844208D10121022001F0FA
:101DA00040FC0021022001F03CFC6AE08E488442A5
:101DB00008D10121042001F034FC0021042001F0AD
:101DC00030FC5EE08948844208D10121082001F0FE
:101DD00028FC0021082001F024FC52E084488442C1
:101DE00008D10121102001F01CFC0021102001F07D
:101DF00018FC46E07F48844208D10121202001F0F0
:101E000010FC0021202001F00CFC3AE07A488442CA
:101E100008D10121402001F004FC0021402001F004
:101E200000FC2EE07548844208D10121802001F099
:101E3000F8FB0021802001F0F4FB22E0704884428E
:101E400008D10121801501F0ECFB0021A01501F063
:101E5000E8FB16E06B48844208D10121401501F0EF
:101E6000E0FB0021601501F0DCFB0AE066488442DB
:101E700007D10121001501F0D4FB0021201501F04C
:101E8000D0FB10BDF0B50A4600210023002400BF9E
:101E90003DE0012505FA01F3156805EA03049C42BB
:101EA00034D105684F000326BE40B543056015795F
:101EB0004E00B5400668354305601579012D02D006
:101EC0001579022D16D185684F000326BE40B54313
:101ED000856055794E00B540866835438560456814
:101EE00001268E40B5434560456896798E40B6B26E
:101EF00035434560C5684F000326BE40B543C56005
:101F0000D5794E00B540C6683543C560491C1029D7
:101F1000BFD3F0BD4FF6FF71016000210171417127
:101F20008171C171704708B54FF480320092009AF8
:101F30000A430092009AC261C161009AC261C269FB
:101F40000092C269009208BD0246002013690B404E
:101F50000BB1012000E0002070470146086980B203
:101F600070470246002053690B400BB1012000E08E
:101F7000002070470146486980B27047018370476E
:101F8000418370470AB1018300E04183704741619A
:101F9000704742694A4042617047F0B5002300240F
:101FA0004D07ED0E02FA05F3CE1000F1200555F8AD
:101FB00026504E07F70E0F26BE40B543CF1000F156
:101FC000200646F82750CE1000F1200555F826507F
:101FD00045EA0304CE1000F1200545F82640F0BD87
:101FE000000002400004024000080240000C0240D1
:101FF000001002400014024000180240001C024081
:1020000000200240002402400028024010B504468F
:10201000FA48844208D10121102001F046FB00213A
:10202000102001F042FB57E0F548844209D101211C
:10203000480401F029FB00214FF4003001F024FB9B
:102040004AE0F048844209D10121880401F01CFBD8
:1020500000214FF4802001F017FB3DE0EA48844264
:1020600009D10121C80401F00FFB00214FF4002029
:1020700001F00AFB30E0E548844209D1012108055E
:1020800001F002FB00214FF4801001F0FDFA23E083
:10209000DF48844208D10121202001F006FB002105
:1020A000202001F002FB17E0DA48844209D1012127
:1020B000880701F0E9FA00214FF0804001F0E4FACE
:1020C0000AE0D548844207D10121400501F0DCFA3D
:1020D0000021600501F0D8FA10BD2DE9FF47054643
:1020E0000E460024A14600BFA046B08900B100BF43
:1020F0002C8A24F44054F08804432C82AC8941F2A9
:102100000C608443B08831890843718908430443D3
:10211000AC81AC8A24F44074B0890443AC82684634
:1021200001F043F9B548854202D0B948854202D151
:10213000DDF80C9001E0DDF80890A88900F400407B
:1021400040B109EBC90000EB091031684900B0FB50
:10215000F1F707E009EBC90000EB091031688900CD
:10216000B0FBF1F76420B7FBF0F004012009642113
:1021700001FB1078A88900F4004040B1322000EB48
:10218000C800B0FBF1F000F00700044308E0322083
:1021900000EB08106421B0FBF1F000F00F000443E5
:1021A0002C81BDE8FF874FF416510160002181802A
:1021B000C18001810C21418100218181704710B5CE
:1021C00002460020108A20F470600B884C8823435C
:1021D0008C882343CC8823431843108210BD0021F0
:1021E000018041808180C180704721B1828942F4A1
:1021F0000052828104E082894DF6FF731A40828189
:102200007047028B02F47F420283028B0A430283EF
:10221000704721B1828942F40042828103E08289C1
:10222000C2F30E028281704721B1828A42F40062B9
:10223000828204E0828A4FF2FF731A4082827047E2
:10224000C1F308028280704701468888C0F3080005
:102250007047028A4FF6F0731A400282028A0A43DC
:102260000282704721B1828942F00202828104E039
:1022700082894FF6FD731A408281704782894FF23E
:10228000FF731A40828182890A4382817047028AE1
:102290004FF6DF731A400282028A0A4302827047B5
:1022A00021B1028A42F48042028204E0028A4BF6A3
:1022B000FF731A4002827047818941F001018181D8
:1022C000704721B1828A42F00802828204E0828A49
:1022D0004FF6F7731A4082827047028BD2B20283A4
:1022E000028B42EA01220283704721B1828A42F0C6
:1022F0002002828204E0828A4FF6DF731A408282D3
:10230000704721B1828A42F01002828204E0828A00
:102310004FF6EF731A4082827047828A4FF6FB7342
:102320001A408282828A0A438282704721B1828A5D
:1023300042F00202828204E0828A4FF6FD731A4064
:10234000828270471AB1838A0B43838202E0838AB8
:102350008B4383827047F0B5034600240026002596
:10236000002040F66A17B94200D100BF1846C1F3F9
:10237000421401F01F06012707FA06F5012C01D1CE
:102380000C3004E0022C01D1103000E014301AB1FE
:1023900007682F43076002E00768AF430760F0BD9E
:1023A00002460020B1F5007F00D100BF13880B402A
:1023B0000BB1012000E00020704701F40072B2F57B
:1023C000007F00D100BFCA430280704770B502464B
:1023D000002400230025002040F66A16B14200D1F7
:1023E00000BFC1F3421501F01F03012606FA03F3F3
:1023F000012D13D19689334017E0000000100140F1
:102400000044004000480040004C004000500040A4
:102410000014014000780040007C0040022D02D1F1
:10242000168A334001E0968A33400C12012606FAE0
:1024300004F41688344013B10CB1012000E00020F0
:1024400070BD10B50022002340F66A14A14200D1ED
:1024500000BF0A1201249440A3B2DC43048010BDE3
:1024600010B50446FE48844208D10121084601F017
:102470001CF90021012001F018F99DE0B4F1804F12
:1024800008D10121084601F0FFF80021012001F0E8
:10249000FBF891E0F348844208D10121022001F0C9
:1024A000F3F80021022001F0EFF885E0EE488442C5
:1024B00008D10121042001F0E7F80021042001F0F7
:1024C000E3F879E0E948844208D10121082001F0CD
:1024D000DBF80021082001F0D7F86DE0E4488442E1
:1024E00008D10121102001F0CFF80021102001F0C7
:1024F000CBF861E0DF48844208D10121202001F0BF
:10250000C3F80021202001F0BFF855E0DA488442EA
:1025100008D10121022001F0C8F80021022001F0B9
:10252000C4F849E0D548844209D10121080401F0EA
:10253000BCF800214FF4803001F0B7F83CE0D048FF
:10254000844209D10121480401F0AFF800214FF481
:10255000003001F0AAF82FE0CA48844209D10121D5
:10256000880401F0A2F800214FF4802001F09DF8CA
:1025700022E0C548844208D10121402001F084F8BE
:102580000021402001F080F816E0C048844208D1C4
:102590000121802001F078F80021802001F074F8FA
:1025A0000AE0BB48844207D10121801501F06CF894
:1025B0000021A01501F068F810BD00220288A84B88
:1025C00098420ED0AC4B98420BD0B0F1804F08D05F
:1025D000A44B984205D0A44B984202D0A34B9842FA
:1025E00004D14FF68F731A404B881A43A04B984280
:1025F00007D0A04B984204D04FF6FF431A400B89F6
:102600001A4302804B68C3620B880385944B98423F
:1026100002D0994B984201D18B7A038601238382A1
:1026200070474FF0FF3141600021018001814180FE
:10263000817270470185828270470A4600210188B5
:102640004FF68F7319401143018070474162704704
:10265000C16270470146486A70470146088D70475D
:1026600021B1028842F00202028004E002884FF6A3
:10267000FD731A400280704721B1028842F00402C3
:10268000028004E002884FF6FB731A400280704714
:1026900021B1028842F08002028004E002884FF6F5
:1026A0007F731A400280704702884FF6F7731A4012
:1026B000028002880A430280704702884FF6FF4377
:1026C0001A40028002880A430280704721B10288C2
:1026D00042F00102028004E002884FF6FE731A40C5
:1026E0000280704770B5002400220023058C4FF64D
:1026F000FE7635400584028C8388048B4FF68F75F7
:102700002C40B51E2C400D882C43751E2A408D8907
:102710002A434D882A43524DA84202D0564DA84222
:1027200013D14FF6F7752A40CD892A434FF6FB7532
:102730002A408D882A434FF6FF652B404FF6FF5500
:102740002B400D8A2B434D8A2B43838004838D6855
:102750004563028470BD70B5002400220023058CFF
:102760004FF6EF7635400584028C8388048B48F65B
:10277000FF752C404FF6FF452C400D884FF6FF7635
:1027800006EA05252C434FF6DF752A408D8906EAB7
:1027900005152A434D8806EA05152A43304DA842FF
:1027A00002D0354DA8421DD14FF67F752A40CD8904
:1027B0004FF6FF7606EA05152A434FF6BF752A4005
:1027C0008D8806EA05152A434FF6FF352B404FF258
:1027D000FF752B400D8A06EA85052B434D8A06EAD4
:1027E00085052B43838004838D688563028470BDD7
:1027F00070B5002400220023058C4FF6FF6635409B
:102800000584028C8388848B4FF68F752C404FF69D
:10281000FC752C400D882C434FF6FF552A408D89BE
:102820004FF6FF7606EA05252A434D8806EA052578
:102830002A430B4DA84202D00F4DA84238D14FF287
:10284000FF752A40CD894FF6FF7606EA05252A4313
:102850004FF6FF352A408D8806EA05252A4319E000
:10286000000001400004004000080040000C00404F
:1028700000100040001400400004014000400140EE
:10288000004401400048014000180040001C004086
:10289000002000404EF6FF752B404DF6FF752B4093
:1028A0000D8A06EA05152B434D8A06EA05152B43CA
:1028B000838084838D68C563028470BD70B50022F7
:1028C00000230024058C4EF6FF7635400584038CEA
:1028D0008488828B48F6FF752A404FF6FF452A40D0
:1028E0000D884FF6FF7606EA05252A434DF6FF755B
:1028F0002B408D8906EA05352B434D8806EA0535C0
:102900002B43FE4DA84202D0FD4DA84208D14BF604
:10291000FF752C400D8A4FF6FF7606EA85152C438D
:10292000848082838D680564038470BD00210180EA
:102930004180818081608181C181018241827047B3
:1029400070B50346002000241846183001258D403C
:10295000ACB21D8CA5431D8409B108290AD100EB36
:10296000610005684FF68F763540056005681543B0
:1029700005600FE00D1FC5F34E052844056848F6B5
:10298000FF763540056005684FF6FF7606EA0226B9
:102990003543056070BD4163704781637047C16313
:1029A0007047016470470A460021018B4FF68F7310
:1029B00019401143018370470A460021018B48F6F4
:1029C000FF7319404FF6FF7303EA02231943018393
:1029D00070470A460021818B4FF68F7319401143CF
:1029E000818370470A460021818B48F6FF731940A6
:1029F0004FF6FF7303EA02231943818370470A46A7
:102A00000021018B4FF6F773194011430183704782
:102A10000A460021018B4FF2FF7319404FF6FF73F6
:102A200003EA02231943018370470A460021818B80
:102A30004FF6F77319401143818370470A4600210E
:102A4000818B4FF2FF7319404FF6FF7303EA0223A5
:102A50001943818370470A460021018B4FF6FB73AF
:102A600019401143018370470A460021018B4FF63C
:102A7000FF3319404FF6FF7303EA02231943018322
:102A800070470A460021818B4FF6FB7319401143B2
:102A9000818370470A460021818B4FF6FF3319402E
:102AA0004FF6FF7303EA02231943818370470A46F6
:102AB0000021018B4FF67F7319401143018370474A
:102AC0000A460021018BC1F30E014FF6FF7303EAA2
:102AD00002231943018370470A460021818B4FF678
:102AE0007F7319401143818370470A460021818B0F
:102AF000C1F30E014FF6FF7303EA022319438183EA
:102B000070470A460021018C4FF6FD7319401143AE
:102B1000018470470A460021018C4FF6F773194073
:102B20001143018470470A460021018C4FF6DF7380
:102B300019404FF6FF7303EA0213194301847047EB
:102B40000A460021018C4FF67F7319404FF6FF7340
:102B500003EA02131943018470470A460021018CDD
:102B60004FF6FF5319404FF6FF7303EA0223194350
:102B7000018470470A460021018C4FF2FF7319400F
:102B80004FF6FF7303EA02231943018470470A4694
:102B90000021018C4DF6FF7319404FF6FF7303EAD5
:102BA000023319430184704730B5002301248C405F
:102BB000A3B2048C9C430484048C02FA01F5ADB2E8
:102BC0002C43048430BD30B5002304248C40A3B2D0
:102BD000048C9C430484048C02FA01F5ADB22C43AE
:102BE000048430BD828B4FF2FF331A408283828B84
:102BF0004FF6FF7303EA01231A4382837047F0B54F
:102C00000C461546002100220026078C4EF6FF7C5C
:102C100007EA0C070784818B028C4FF6FF7707EADF
:102C2000043640F6FF4739404FF6FF7707EA05279D
:102C300039434FF6FF7707EA0337394345F6FF7705
:102C40003A4046F480573A4381830284F0BD828B38
:102C50004FF6F3731A408283828B0A438283704754
:102C6000F0B50C461546002100220026078C4FF6D1
:102C7000FF6C07EA0C070784818B028C4FF6FF7705
:102C800007EA04264FF60C7739404FF6FF7707EA3C
:102C900003172F4339434FF2FF573A4046F48077EA
:102CA0003A4381830284F0BD028B4FF2FF331A4016
:102CB0000283028B4FF6FF7303EA01231A43028358
:102CC0007047F0B50C461546002100220026078CFF
:102CD0004FF6EF7C07EA0C070784018B028C4FF656
:102CE000FF7707EA041640F6FF4739404FF6FF77B3
:102CF00007EA033739434FF6FF7703E0000001404E
:102D00000004014007EA052739434FF65F773A4050
:102D100046F010073A4301830284F0BD028B4FF660
:102D2000F3731A400283028B0A4302837047F0B5A3
:102D30000C46154600210022068C4FF6FE773E40D9
:102D40000684018B028C4FF60C7631407E1C06EA1D
:102D500003162E4331434FF6F576324044F0010618
:102D6000324301830284F0BD70B505460C462088CD
:102D700050B92389A28861882846FFF7D8FFE188E7
:102D80002846FFF7CBFF25E0208804280AD12389B5
:102D9000A28861882846FFF794FFE1882846FFF75C
:102DA00083FF17E0208808280AD12389A288618838
:102DB0002846FFF755FFE1882846FFF748FF09E05E
:102DC0002389A28861882846FFF719FFE1882846F1
:102DD000FFF708FF70BD0021018041800121818043
:102DE0000021C180018170472DE9F04105460C4664
:102DF00000260127608808B9022600E00026A08886
:102E0000012801D1022700E001272088A0B92389E9
:102E1000A28861882846FFF78AFFE1882846FFF7E5
:102E20007DFF23893A4631462846FFF74AFFE1886D
:102E30002846FFF739FF13E02389A28861882846D6
:102E4000FFF73FFFE1882846FFF72EFF23893A4628
:102E500031462846FFF76BFFE1882846FFF75EFF03
:102E6000BDE8F0810146486B70470146886B7047AA
:102E70000146C86B70470146086C70470A884B884A
:102E80001A438B881A43CB881A430B891A434B8900
:102E90001A438B891A43A0F844207047002101800F
:102EA00041808180C180018141818181704731B140
:102EB000B0F8442042F40042A0F8442005E0B0F805
:102EC0004420C2F30E02A0F84420704721B182884A
:102ED00042F00402828004E082884FF6FB731A40BD
:102EE0008280704721B1828842F00102828004E032
:102EF00082884FF6FE731A40828070471AB1838928
:102F00000B43838102E083898B43838170478182F5
:102F1000704702460020138A0B400BB1012000E0ED
:102F200000207047CA430282704730B50246002035
:102F300000230024158A05EA0103958905EA0104A6
:102F400013B10CB1012000E0002030BDCA43028261
:102F5000704741EA0203A0F8483070471AB18389EC
:102F60000B43838102E083898B438381704721B1C6
:102F7000828842F00802828004E082884FF6F7736C
:102F80001A408280704701894FF6F8721140018122
:102F900070470A46002101894FF68F73194011438B
:102FA0000181704730B504460D4629462046FFF79B
:102FB000F0FF208940F00700208130BD2DE9F0416D
:102FC00004460D4616461F46602D06D13B4601229B
:102FD00031462046FFF775FE05E03B4601223146AB
:102FE0002046FFF7A4FE29462046FFF7D2FF20899E
:102FF00040F007002081BDE8F08130B50C4600218B
:103000000189C9B24FF6FF7505EA0325154325432B
:103010002943018130BD2DE9F04105460E46174692
:103020009846002443463A4631462846FFF7E5FFD6
:103030002C894FF6F870044044F007044FF68F7067
:10304000044044F070042C81BDE8F081F0B50446E2
:103050000D4616461F463B46324629462046FFF798
:10306000CCFF208940F480402081F0BD82884FF65B
:103070008F731A40828082880A4382807047028957
:103080004FF6F8731A40028102890A4302817047A1
:1030900002894FF67F731A40028102890A43028136
:1030A0007047F0B50C4615461E460021002200234D
:1030B0000189028B038C4FF6F877394021434FF694
:1030C000FC473A4040F201173A434FF6DD773B4068
:1030D0004FF6FF7707EA06172F433B430181028330
:1030E0000384F0BD21B1828842F08002828004E036
:1030F00082884FF67F731A4082807047A0F8501084
:103100007047000010B50121880300F0CEFA0021BD
:103110004FF4804000F0C9FA10BD1C4908607047A8
:103120001B490862704730B500228B071C0F0F2324
:1031300003FA04F2154B08338C1053F824309343F0
:10314000124C08348D1044F8253023468C1053F867
:1031500024308C07240F00FA04F423430B4C08346A
:103160008D1044F8253030BD0949DC3108607047C6
:10317000084908607047002004492031096801F4BB
:10318000807109B1012000E0002070470038014043
:103190000000274200042742F948006840F001007F
:1031A000F74908600020F64908310860F4480068D3
:1031B000F4490840F2490860F348091D0860F348E3
:1031C000EF4984310860F0481038091D0860EC4868
:1031D000006820F48020EA4908600020E8490C31AA
:1031E0000860E7498C31086070470021E44A921C6E
:1031F000117011460870704710B501460022002377
:1032000000204A11012A02D1DD4C236808E0022A7D
:1032100003D1DB4C7034236802E0D94C743423684A
:1032200001F01F02012494401C400CB1012000E079
:10323000002010BD38B5002000900024002500BFFC
:103240003120FFF7D9FF05460098401C00900098F8
:10325000B0F5A04F01D0002DF2D03120FFF7CCFF08
:1032600008B1012400E00024204638BD01460020BA
:10327000C34A106820F0F80040EAC10010607047AF
:10328000C349086070470021BD4A70321170117047
:10329000012802D004280AD104E00121B84A703282
:1032A000117005E00521B64A7032117000E000BFD0
:1032B00000BF7047B7490860704770B5049C41EA89
:1032C00082150126C6EB530645EA0645054345EA45
:1032D0000465AB4E361D356070BDAD49086670475C
:1032E000820142EA0172A64B84331A607047A849F2
:1032F0008866704710B5830143EA016343EA0273AD
:103300009F4C8834236010BDA14908677047A049CD
:10331000C864704702460020994B0833186820F0B3
:10332000EC6042EA01031843954B0833186070477C
:1033300002460020924B0833186820F0784042EA99
:10334000010318438E4B0833186070470146002074
:103350008B4A0832106820F0030008431060704761
:1033600087480830006800F00C00704701460020D4
:10337000834A0832106820F0F0000843106070475C
:10338000014600207E4A0832106820F4E0500843CD
:103390001060704701460020794A0832106820F416
:1033A000604040EAC10010607047F0B50021002283
:1033B0000024022500260223714F08373F6807F0DA
:1033C0000C0121B1042905D0082937D105E0724F3D
:1033D000076036E0714F076033E0694F3F1D3F687B
:1033E000C7F38056664F3F1D3F6807F03F036EB13D
:1033F0006A4FB7FBF3F7DFF888C10CF1040CDCF877
:1034000000C0CCF3881C07FB0CF40CE0624FB7FB48
:10341000F3F7DFF86CC10CF1040CDCF800C0CCF35E
:10342000881C07FB0CF4564F3F1D3F68C7F301474C
:103430007F1C7D00B4FBF5F7076002E0564F076084
:1034400000BF00BF4E4F08373F6807F0F001090981
:10345000534F7A5C0768D7404760494F08373F6849
:1034600007F4E051890A4E4F7A5C4768D74087607D
:10347000434F08373F6807F46041490B484F7A5C77
:103480004768D740C760F0BD002100F44072B2F534
:10349000407F0AD13A4A0832116821F4F811414AB2
:1034A00002401143364A08321160354A70321268C0
:1034B000C0F30B031A43324B70331A60704735491F
:1034C00044390860704733494039086070473649CD
:1034D0000860704701460020294A8C32106820F0AD
:1034E0001F004A1E1043264A8C3210607047014666
:1034F0000020234A8C32106820F4F8504A1E40EA1B
:1035000002201F4A8C3210607047014600201C4A7E
:103510008C32106820F44010084310607047014658
:103520000020174A8C32106820F4400008431060D5
:10353000704701460020124A8C32106820F4403057
:1035400008431060704719490860704739B10C4A48
:103550003032126802430A4B30331A6006E0084AE0
:10356000303212688243064B30331A607047F9B12B
:10357000034A343212680243014B34331A601CE0B0
:1035800000380240FFFFF6EA10300024003000202F
:1035900000004742800E47420024F40000127A00E7
:1035A0008F000020FFFCFF0F5C014742E011474203
:1035B0008F4A126882438E4B1A60704739B18C4A29
:1035C000121D126802438A4B1B1D1A6006E0884ACE
:1035D000121D12688243864B1B1D1A60704739B159
:1035E000834A0C3212680243814B0C331A6006E0A6
:1035F0007F4A0C32126882437D4B0C331A6070474D
:1036000039B17B4A103212680243794B10331A6089
:1036100006E0774A103212688243754B10331A6005
:10362000704739B1724A243A12680243704B243B06
:103630001A6006E06E4A243A126882436C4B243BBF
:103640001A60704739B16A4A203A12680243684BDF
:10365000203B1A6006E0664A203A12688243644BB7
:10366000203B1A60704739B1614A1C3A1268024324
:103670005F4B1C3B1A6006E05D4A1C3A12688243AD
:103680005B4B1C3B1A60704739B1594A143A1268B7
:103690000243574B143B1A6006E0554A143A12682D
:1036A0008243534B143B1A60704739B1504A103A69
:1036B000126802434E4B103B1A6006E04C4A103A27
:1036C000126882434A4B103B1A60704739B1484A2E
:1036D0001C3212680243464B1C331A6006E0444A0F
:1036E0001C3212688243424B1C331A60704739B156
:1036F0003F4A2032126802433D4B20331A6006E0F5
:103700003B4A203212688243394B20331A6070479B
:1037100039B1374A243212680243354B24331A60D8
:1037200006E0334A243212688243314B24331A6054
:10373000704739B12E4A2C32126802432C4B2C337D
:103740001A6006E02A4A2C3212688243284B2C3336
:103750001A60704739B1264A303212680243244B4E
:1037600030331A6006E0224A303212688243204B1E
:1037700030331A607047012808D11D493C3109686F
:1037800041F008011A4A3C32116007E018493C3107
:10379000096821F00801164A3C321160704739B1BE
:1037A000134A273A12780243114B273B1A7006E05E
:1037B0000F4A273A127882430D4B273B1A70704705
:1037C0000B484030006840F0807009494031086083
:1037D000704701460020064A283A12680A400AB19A
:1037E000012000E000207047014926390870704729
:1037F00034380240002041490860091D0860091D55
:103800000860091D08603E483C4914310860704753
:1038100000213A498279002A3AD00A4612680368A0
:103820009A430B461A600A1D126803689A430B1DDF
:103830001A60027911440A6803681A430A602F4A21
:103840000832126803689A432C4B08331A601A1D19
:10385000126803689A43294B0C331A604279102A84
:103860000ED11A1F126803681A43244B08331A60DA
:103870001A1D126803681A43204B0C331A600DE0BE
:103880001E49427911440A6803681A430A6005E038
:10389000027911440A6803689A430A60704700215C
:1038A000016001710C214171002181717047134940
:1038B000103109680143114A103211607047014606
:1038C00000200E4A143212680A400AB1012000E0BA
:1038D00000207047094914310860704701460020F4
:1038E000064A143212680A400AB1012000E00020A2
:1038F000704702491431086070470000003C0140E5
:10390000FFFF7F00704770477047704770470000A7
:1039100000487047740100207546FFF7F9FFAE4676
:1039200005006946534620F00700854618B020B5CB
:10393000FEF7A0F9BDE820404FF000064FF0000769
:103940004FF000084FF0000B21F00701AC46ACE847
:10395000C009ACE8C009ACE8C009ACE8C0098D46B4
:1039600070470446AFF300802046FCF756FC03B4D2
:1039700001984100009850EAC12018BF04204A0D68
:1039800018BF40F0010040F2FF72B2EB515F08BF78
:1039900040F00200012808BF052002B07047000077
:1039A00070B59B482DED020B2DED068B079D25F084
:1039B0000044A04218DC9748844202DC0AD10698F1
:1039C00040B19DED060BBDEC068B02B0BDE870402A
:1039D00000F0C6BA002DCCBF9FED8F0B9FED900B72
:1039E000BDEC068B02B070BD8F48A04215DD8F483C
:1039F000A042D8BF4FF0FF3458DD9DED060B51ECCF
:103A0000100BFFF7B4FF042808BF00F0BDFA9DEDCE
:103A1000060BBDEC068B02B070BD9DED060B51ECA4
:103A2000100B00F0C9FACDE9060181489FED828BA9
:103A3000A0423CDD8248A0421FDD00249FED82AB06
:103A40009DED060B53EC1A2B51EC100B00F0FEFA17
:103A50009DED060B41EC190B53EC1A2B51EC100B9E
:103A600000F080FD53EC182B00F0BCFE53EC192B3A
:103A700000F0A0FBCDE9060149E09DED060B012415
:103A800053EC182B51EC100B00F0E0FA9DED060BF7
:103A900041EC190B53EC182B51EC100B00F0A2FE6B
:103AA00053EC192B00F086FBCDE906012FE06848A6
:103AB000A0421FDD02249FED689B9DED060B53EC99
:103AC000192B51EC100B00F04DFD53EC182B00F0AE
:103AD000BDFA9DED060B41EC180B53EC192B51EC84
:103AE000100B00F07FFE53EC182B00F063FBCDE9C8
:103AF00006010CE09DED060B032453EC102B9FED0B
:103B0000580B51EC100B00F055FBCDE906019DED73
:103B1000060B53EC102B51EC100B00F023FD41EC85
:103B2000180B53EC182B00F01DFD41EC190B4E48FF
:103B30000621B0EE490AF0EE690A784400F094F9E3
:103B400053EC182B51EC100B00F00CFD41EC180B52
:103B50004648B0EE490AF0EE690A0521784400F0C3
:103B600083F953EC192B51EC100B00F0FBFC41ECEA
:103B7000100B51EC180B53EC102B002C0EDA00F04C
:103B800065FA9DED061B53EC112B00F0EBFC9DED4F
:103B9000061B53EC112B00F019FE35E000F056FA2D
:103BA0009DED061B53EC112B00F0DCFC41EC100BDF
:103BB0002F48784400EBC40090ED001B51EC100B33
:103BC00053EC112B00F00EFE9DED061B53EC112B58
:103BD00000F008FE41EC100B2648784400EBC400CE
:103BE00090ED001B51EC100B53EC112B00F0EEFD8F
:103BF00041EC100B002DA2BFBDEC068B02B070BDD6
:103C000051EC100B00F0E4F941EC100B01E700005F
:103C1000000010440000F07F182D4454FB21F93FB0
:103C2000182D4454FB21F9BF0000DC3F0000203E6A
:103C30000000F33F00000000000000000000F03F23
:103C40000000E63F0000000000000000000000400F
:103C50000080034000000000000000000000F83F6A
:103C6000000000000000F0BFDA0F0000900F00001D
:103C70001A0F0000D20E000070B56B4E2DED040B34
:103C80002DED028B82B0DDF81CC0DDE905235C421E
:103C90002CF000411C4341EAD474049D22F0004002
:103CA000B44205D86C422C4340EAD474B4420BD9D8
:103CB0009DED061B9DED040B02B0BDEC028B04B024
:103CC000BDE8704000F056B9ACF14054A4F17F64F7
:103CD0001C430BD0022404EAAC7444EAD2740543BA
:103CE0009FED538B9FED542B07D015E09DED040BFA
:103CF00051EC100B00F058F942E0002C11BF012CE0
:103D00009DED040B02B0BDEC028B04BF04B070BD8E
:103D1000022C38D0032C3BD00B439FED491B9FED69
:103D20004A0B0AD0B14218D1B04209D121F08041EA
:103D300020F08040079105900FE0002A15DA10E08E
:103D4000434B7B44002C08BF93ED000B0DD0012C9E
:103D500010D0022C17D0032C1AD0B0421DD1002A4B
:103D600003DAB0EE410AF0EE610A02B0BDEC028B5C
:103D700004B070BD93ED000B51EC100B00F028F96E
:103D800041EC100BF1E7B0EE480AF0EE680AECE700
:103D9000B0EE420AF0EE620AE7E7401A00153C284E
:103DA000C8BF8DED000B19DCBCF1000FBEBF10F1D8
:103DB0003C0F9FED290B8DED000B0FDB9DED060BEE
:103DC00053EC102B9DED040B51EC100B00F0F2F9AD
:103DD00000F0F2F800F0E8F8CDE90001002C08BF8F
:103DE0009DED000BC1D0012C10D0022C9FED1C0BBF
:103DF00053EC102B9DED000B51EC100B0DD000F08F
:103E0000F1FC53EC182B00F0EDFCB9E7019880F0C1
:103E1000004001909DED000BA7E700F0E3FC53ECA0
:103E2000182B00F0D3FCABE70000F07F000000008F
:103E3000182D4454FB210940182D4454FB2109C07E
:103E4000182D4454FB21F9BF182D4454FB21F93F90
:103E5000020E000000000000000000000000000052
:103E6000075C143326A6A13C70B504462DED028BE9
:103E70004D1E00EBC500B0EE408AF0EE608A90ED7A
:103E8000000B35F0060017D053EC182B51EC100B3B
:103E900000F068FB41EC100B6D1E04EBC50090EDCB
:103EA000001B51EC100B53EC112B00F0CFF841EC40
:103EB000100B35F00600E7D1022D36D0042D1CD0B2
:103EC000062D1CBFBDEC028B70BD53EC182B51ECC2
:103ED000100B00F047FB94ED0A1B53EC112B00F084
:103EE000B5F853EC182B00F03DFB94ED081B53EC98
:103EF000112B00F0ABF841EC100B53EC182B51ECEC
:103F0000100B00F02FFB94ED061B53EC112B00F06F
:103F10009DF853EC182B00F025FB94ED040B53ECAB
:103F2000102B00F093F841EC100B53EC182B51ECD4
:103F3000100B00F017FB94ED021B53EC112B00F05B
:103F400085F853EC182B00F00DFB94ED001B53EC9F
:103F5000112B00F07BF8BDEC028B41EC100B70BD17
:103F600010B553EC102B51EC100B00F06FF841EC36
:103F7000100B10BD10B553EC112B51EC100B00F0D1
:103F800065F841EC100B10BD9FED050B10B553EC1F
:103F9000102B51EC100B00F0E5FA41EC100B10BDAA
:103FA000000000000000001010B541EC100BFFF7FE
:103FB000F7FC51EC100B10BD82B0CDE9000121F0EF
:103FC000004001909DED000B02B051EC100B7047CA
:103FD00081F00041704780F00040704721F00041BF
:103FE000704720F00040704721F00042A2F160527B
:103FF000B2F5801F01F0004328BFD2F17F6C0BD9CE
:104000005FEA001C43EAC20242EB507018BF7047DF
:1040100028BF20F001007047B2F5801FBCBF1846D2
:1040200070474FEA410C1CF5001F02D2084600F011
:1040300039BD70B500F040FB00000089FFF7F6BF06
:104040004FF00040A0F580007047000010B591EAE5
:10405000030F48BF83F0004300F1CC83841A71EB57
:10406000030C05D2121943EB0C03001B61EB0C018E
:10407000DFF824E14FEA1154A4EB135C1EEA430F6E
:1040800018BF9EEA445F73D023EA0E03DCF1200ED2
:1040900021EA045143F4801332D322FA0CFE10EBD0
:1040A0000E0023FA0CFE41EB0E01CCF1200E03FAB8
:1040B0000EFE10EB0E0051F10001B1F5801FCCF1A6
:1040C000200E32D201EB045112FA0EF2BDE810407C
:1040D00058BF7047401C38BF5FEA420218BF7047A4
:1040E000002814BF20F0010041F100014FEA410314
:1040F00013F5001F38BF7047A1F1C04100F02ABB83
:10410000012A43EB0302ACF1200CDCF11F0E32BF9D
:104110004FF0000E23FA0CF310EB030041EB0451B7
:10412000B4EB115FD0D0A1EB045101F58011490827
:104130005FEA300001EB04510ED350F1000038BFAC
:1041400012FA0EFE08D1BDE81040C9E7401C38BF86
:104150005FEA4202CAD1C3E7BDE810404FEA41031B
:1041600013F5001F38BF7047A1F1C04100F0F2BA4B
:104170009EEA445F08D011EA5E0FBDE8104004BF1C
:1041800001F0004100207047BDE8104070B500F01C
:1041900093FA00BF64FBBE3E0000E0FF491058BF29
:1041A000C1F140415B1058BFC3F140438B42EFF374
:1041B000008070472DE9C04130B4DFF8A0C23CEA6E
:1041C000111418BF3CEA131400F0EC8081EA0305D7
:1041D0001CEA111444EAD57418BF1CEA131500F048
:1041E000C780A4EB05044FF0004545EAC12145EA2C
:1041F000C32341EA505143EA525304F17F74994278
:1042000004F500344FEAC0204FEAC22208BF9042B2
:1042100000F09C804FEA13650FF24016765D4FEA7E
:10422000134506FB05F7C7F1807706FB07F74FEA52
:10423000D737A7FB03687642C8F58038A7FB06CEC0
:1042400038BFA8F1010807FB08E64FF0000EA6FBF7
:10425000028CE6FB03CEDCF1000CCEF1004E38BF41
:10426000AEF1010EA6FB0C584FF000074FF0000511
:10427000E6FB0E87A1FB08C6A0FB07CE16EB0E06D9
:1042800045F10005E1FB076515F1E04E7EBFA4F5A1
:1042900080345FEA46066D4116F1800745F100055E
:1042A0004FEA17274FEA066647EA0567A6F1DE469A
:1042B000B6F1805F4FEA15251FD9384624F0010C6E
:1042C00005EBC471BCF1FE6F01EB0C1102D8F0BC20
:1042D000BDE8008124425CBF01F5801E9EEAC47FD8
:1042E00002D4F0BCBDE80081244238D4F0BCA1F176
:1042F000C041BDE8004100F02DBA4FEAD22242EAA7
:1043000043524FEAD323A7FB02864FEAD02040EA6C
:10431000415007FB03661EEA0E0F4FEAD12105FB51
:10432000026658BFA6EB0056B6EB00564FEA520E97
:104330004EEAC37E18EB0E0E56EB530EBDD518EBAE
:1043400002085E417F1C55F10005B6E74FF4801569
:104350004FF000074FF000064FF00008ADE7F0BC4B
:104360004FF0000001F1C04101F00041BDE80081C3
:1043700011EA0C1F0CEA131500D00CE013EA0C1F15
:1043800000F025804FF00000F0BC81EA030101F04D
:104390000041BDE80081F0BCBDE8004181EA0301B5
:1043A00000F0D8B9F0BCBDE8004170B500F084F968
:1043B000097EFC3E00F007B881EA03014FF00000DF
:1043C00001F00041704781EA030100F0C3B9F0BC7D
:1043D000BDE800414FF0000021497047FFFDFBF9A7
:1043E000F7F5F4F2F0EEEDEBE9E8E6E4E3E1E0DE28
:1043F000DDDBDAD8D7D5D4D3D1D0CFCDCCCBCAC89A
:10440000C7C6C5C4C2C1C0BFBEBDBCBBBAB9B8B7C0
:10441000B6B5B4B3B2B1B0AFAEADACABAAA9A8A8B3
:10442000A7A6A5A4A3A3A2A1A09F9F9E9D9C9C9B81
:104430009A9999989797969595949393929191902C
:104440008F8F8E8E8D8C8C8B8B8A898988888787BD
:104450008685858484838382828181800000FF0732
:104460000000F87F4FEA1153A3F58063D3F11E03D8
:10447000A8BFD3F1200C08DB4FF0004242EAC12272
:1044800052EA505232FA03F0704709420BD4102B13
:10449000C4BF0020704703F5787CBCF1FF3F05D016
:1044A0004FF0FF3070474FF00000704770B500F0DC
:1044B00003F900BF4992248000207047F0E710F014
:1044C000004248BF4042B0FA80F310FA03F10AD02C
:1044D000C3F11D0303F580634FEA415002EB035221
:1044E00002EBD12170474FF00000704751EA030CF6
:1044F00017D41CF5801F58BFBCF5801F00F1068043
:10450000994218BF704708BF9042704707D711F50E
:10451000801F58BF13F5801F19D4994270478942F4
:1045200070471CF5801F08D5BCF5801FF7D58B425E
:1045300018BF704708BF824270474FF4001C1CEB45
:10454000410F38BF1CEB430F01D28B42704770B54F
:1045500000F0B2F8922449004FF000514FF0805320
:10456000FFF71CBEDFF848C170B51CEA111E1EBF64
:104570001CEA13159EEA0C0F95EA0C0F00F06F80F1
:1045800081EA030423EA4C134EEAD47E21EA4C115B
:1045900041F4801143F48013AE44A1FB024CA0FB14
:1045A0000365AEF17F7E361955EB0C05A1FB034C7C
:1045B0004CF10003A0FB021C16EB0C06654153F105
:1045C0000003094218BF46F0010613F4007F0BD127
:1045D0004FEA03314FEA0530340341EA155140EA0E
:1045E00016506FF003020AE04FEAC3214FEAC520DC
:1045F000F40241EA555140EA56506FF0020202EBD4
:104600002E4201EB025585EACE710AD05FEA440CD6
:1046100018BF24F0004450F1000041F1000120EAED
:10462000D47040F2FE7C624500D270BDA84214BF37
:104630004FF080444FF04044002E08BF0024BEF1EC
:10464000806FA8BFA1F1C041BDE8704080F28280B8
:104650004FF0000001F1C04101F0004170479EEAB7
:104660000C0F0CEA131518BF95EA0C0F06D04FF08B
:10467000000081EA030E0EF0004170BD00F01CF84E
:104680008900013E00F007B800F009B84FEA430C7A
:104690005FEA5C5C08D081EA030100F05BB84FEA96
:1046A000410C5FEA5C5CF6D14FF0000001497047B5
:1046B0000000FF070000F87F0EF1020E2EF0030E3F
:1046C0005EF8046B364205D4012A43EB030515F569
:1046D000001F12D8012841EB010C1CF5001F0CD85B
:1046E0000ED14FEAD17C15F5001F0CEB4C0C0CF1F0
:1046F000020C08BF4CEBD37C04E04FF0080C01E047
:104700004FEAD37C0CEB4C0526FA05F606F00706BB
:10471000B6F1040C06D20EEB860CBDE870404CF0EE
:10472000010C6047DFE80CF0090B02024FF000417A
:104730004FF00000A1F5002170BD19461046012878
:1047400051EB010418BFD4F5001484BF002001F020
:10475000004170BD0808A0F500114FEA3101704713
:1047600053EA010C17D41CF5801F58BFBCF5801FFD
:1047700000F106808B4218BF704708BF8242704725
:1047800007D713F5801F58BF11F5801F19D48B422E
:1047900070479B4270471CF5801F08D5BCF5801FF1
:1047A000F7D5994218BF704708BF904270474FF441
:1047B000001C1CEB430F38BF1CEB410F01D2994288
:1047C00070470FB40CBC03BCFFF7C1BE91EA030FE6
:1047D00010B581F000413FF541AC83F0004300F09B
:1047E00009B8000010B591EA030F48BF83F00043F9
:1047F0003FF534AC841A71EB030C07D212198CF01C
:10480000004C43EB0C03001B61EB0C01DFF8A4E14F
:104810004FEA1154A4EB135C1EEA430F18BF9EEA43
:10482000445F00F0B08023EA6E03524221EA045153
:10483000C3EB6E0338BF5B1EDCF1200E25D322FADA
:104840000CFE10EB0E0043FA0CFE41EB0E01CCF116
:10485000200E03FA0EFE10EB0E0051F10001CCF118
:10486000200E29D412FA0EF201EB0451BDE81040DB
:1048700058BF7047401C1CBFB2F1004F7047002862
:104880000CBF491C20F00100704712EB020E43EBF5
:10489000030218BF4FF0010E4EEA4202ACF1200CA9
:1048A000DCF11E0E54D943FA0CFE10EB0E0051F150
:1048B000FF31CCF11E0ED5D50EF1010E12FA0EFE0F
:1048C000404141EB010101EB445C5FEA5C5C10D9C3
:1048D00010EBDE7001EB045138BFBEF1004FBDE8B4
:1048E000104018BF704700280CBF491C20F0010081
:1048F000704730D24FEAD42C11F5001124F4006433
:104900001BD0B1FA81F20B3AA41AA41ED2F12003F3
:10491000914030FA03F31943904001EBCC71002C25
:1049200001EB0451BDE81040A8BF704701F1C04140
:104930004FF0000001F000417047B0FA80F310FA28
:1049400003F100D110BDE41A173C4805C90AE4E799
:1049500001EB045110BD491001EB0451BDE81040BA
:104960004FEA300002E04FF0000170474A0008BFF4
:104970000042F8D0B2F5001F28BF704701F0004197
:104980004FF0000070479EEA445F07D011EA5E0FC7
:10499000BDE8104004BF002100207047BDE8104072
:1049A00070B5FFF789FE00BF40DFF63E83F000419F
:1049B000104670470000E0FF43004FEAD30C4FEA77
:1049C0003C0C43401FBF40070CF1605113F0FE4FF9
:1049D00070471CF0006F03D100200CF000417047BD
:1049E0000CF0004343EA507010B540EACC0000F0F0
:1049F0000EF800BF000000924FEA0001FFF7AABEC8
:104A00004FF000414FF00000A1F5002170470EF17A
:104A1000020E2EF0030E5EF8044B244204D44FEA3B
:104A20004102B2F17F4F11D84FEA4003B3F17F4FFB
:104A30000CD80ED14FEAD07CB2F17F4F0CEB4C0C6E
:104A40000CF1020C08BF4CEBD17C04E04FF0080CD9
:104A500001E04FEAD17C0CEB4C0324FA03F404F0A0
:104A60000704B4F1040C06D20EEB840CBDE8104030
:104A70004CF0010C6047DFE80CF0070802024FF031
:104A80000040A0F5800010BD0846420018BFD2F1DA
:104A9000807288BF00F0004010BD4FF04070E1EE22
:104AA000100A7047FF2141EAD050C005704700004E
:104AB0004FBB610567ACDD3F182D4454FB21E93F36
:104AC0009BF681D20B73EF3F182D4454FB21F93F25
:104AD000E2652F227F2B7A3C075C143326A6813CAB
:104AE000BDCBF07A8807703C075C143326A6913C56
:104AF000C4EB98999999C9BF711623FEC671BCBFC2
:104B00006D9A74AFF2B0B3BF9AFDDE522DDEADBF29
:104B10002F6C6A2C44B4A2BF0D5555555555D53F41
:104B2000FF8300922449C23F6E204CC5CD45B73F5C
:104B3000513DD0A0660DB13FEB0D76244B7BA93FD4
:104B400011DA22E33AAD903F0000000000000000BF
:104B5000704B000800000020A0000000C401000805
:104B6000104C0008A000002038070000E0010008F9
:104B7000000000000000000000006EC2000099C2AA
:104B8000000000000000000000000000007A030A9E
:104B900000000000000000000102030406070809ED
:104BA0000000000000000000000000000000000005
:104BB00000000000000000000000000000000100F4
:104BC00000000000000000000000000000000000E5
:104BD00000000000000000000000000000000000D5
:104BE00000000000000000000000000000000000C5
:104BF00000000000000001000000000000000000B4
:104C00000000000102030401020304060708090072
:040000050800018965
:00000001FF
